{
  "contractName": "Voting",
  "abi": [
    {
      "anonymous": false,
      "inputs": [
        {
          "indexed": true,
          "internalType": "address",
          "name": "previousOwner",
          "type": "address"
        },
        {
          "indexed": true,
          "internalType": "address",
          "name": "newOwner",
          "type": "address"
        }
      ],
      "name": "OwnershipTransferred",
      "type": "event"
    },
    {
      "anonymous": false,
      "inputs": [
        {
          "indexed": false,
          "internalType": "uint256",
          "name": "proposalId",
          "type": "uint256"
        }
      ],
      "name": "ProposalRegistered",
      "type": "event"
    },
    {
      "anonymous": false,
      "inputs": [
        {
          "indexed": false,
          "internalType": "address",
          "name": "voter",
          "type": "address"
        },
        {
          "indexed": false,
          "internalType": "uint256",
          "name": "proposalId",
          "type": "uint256"
        }
      ],
      "name": "Voted",
      "type": "event"
    },
    {
      "anonymous": false,
      "inputs": [
        {
          "indexed": false,
          "internalType": "address",
          "name": "voterAddress",
          "type": "address"
        }
      ],
      "name": "VoterRegistered",
      "type": "event"
    },
    {
      "anonymous": false,
      "inputs": [
        {
          "indexed": false,
          "internalType": "enum Voting.WorkflowStatus",
          "name": "previousStatus",
          "type": "uint8"
        },
        {
          "indexed": false,
          "internalType": "enum Voting.WorkflowStatus",
          "name": "newStatus",
          "type": "uint8"
        }
      ],
      "name": "WorkflowStatusChange",
      "type": "event"
    },
    {
      "inputs": [],
      "name": "owner",
      "outputs": [
        {
          "internalType": "address",
          "name": "",
          "type": "address"
        }
      ],
      "stateMutability": "view",
      "type": "function",
      "constant": true
    },
    {
      "inputs": [
        {
          "internalType": "uint256",
          "name": "",
          "type": "uint256"
        }
      ],
      "name": "proposalsArray",
      "outputs": [
        {
          "internalType": "string",
          "name": "description",
          "type": "string"
        },
        {
          "internalType": "uint256",
          "name": "voteCount",
          "type": "uint256"
        }
      ],
      "stateMutability": "view",
      "type": "function",
      "constant": true
    },
    {
      "inputs": [],
      "name": "renounceOwnership",
      "outputs": [],
      "stateMutability": "nonpayable",
      "type": "function"
    },
    {
      "inputs": [
        {
          "internalType": "address",
          "name": "newOwner",
          "type": "address"
        }
      ],
      "name": "transferOwnership",
      "outputs": [],
      "stateMutability": "nonpayable",
      "type": "function"
    },
    {
      "inputs": [],
      "name": "winningProposalID",
      "outputs": [
        {
          "internalType": "uint256",
          "name": "",
          "type": "uint256"
        }
      ],
      "stateMutability": "view",
      "type": "function",
      "constant": true
    },
    {
      "inputs": [],
      "name": "workflowStatus",
      "outputs": [
        {
          "internalType": "enum Voting.WorkflowStatus",
          "name": "",
          "type": "uint8"
        }
      ],
      "stateMutability": "view",
      "type": "function",
      "constant": true
    },
    {
      "inputs": [
        {
          "internalType": "address",
          "name": "_addr",
          "type": "address"
        }
      ],
      "name": "getVoter",
      "outputs": [
        {
          "components": [
            {
              "internalType": "bool",
              "name": "isRegistered",
              "type": "bool"
            },
            {
              "internalType": "bool",
              "name": "hasVoted",
              "type": "bool"
            },
            {
              "internalType": "uint256",
              "name": "votedProposalId",
              "type": "uint256"
            }
          ],
          "internalType": "struct Voting.Voter",
          "name": "",
          "type": "tuple"
        }
      ],
      "stateMutability": "view",
      "type": "function",
      "constant": true
    },
    {
      "inputs": [
        {
          "internalType": "uint256",
          "name": "_id",
          "type": "uint256"
        }
      ],
      "name": "getOneProposal",
      "outputs": [
        {
          "components": [
            {
              "internalType": "string",
              "name": "description",
              "type": "string"
            },
            {
              "internalType": "uint256",
              "name": "voteCount",
              "type": "uint256"
            }
          ],
          "internalType": "struct Voting.Proposal",
          "name": "",
          "type": "tuple"
        }
      ],
      "stateMutability": "view",
      "type": "function",
      "constant": true
    },
    {
      "inputs": [
        {
          "internalType": "address",
          "name": "_addr",
          "type": "address"
        }
      ],
      "name": "addVoter",
      "outputs": [],
      "stateMutability": "nonpayable",
      "type": "function"
    },
    {
      "inputs": [
        {
          "internalType": "string",
          "name": "_desc",
          "type": "string"
        }
      ],
      "name": "addProposal",
      "outputs": [],
      "stateMutability": "nonpayable",
      "type": "function"
    },
    {
      "inputs": [
        {
          "internalType": "uint256",
          "name": "_id",
          "type": "uint256"
        }
      ],
      "name": "setVote",
      "outputs": [],
      "stateMutability": "nonpayable",
      "type": "function"
    },
    {
      "inputs": [],
      "name": "startProposalsRegistering",
      "outputs": [],
      "stateMutability": "nonpayable",
      "type": "function"
    },
    {
      "inputs": [],
      "name": "endProposalsRegistering",
      "outputs": [],
      "stateMutability": "nonpayable",
      "type": "function"
    },
    {
      "inputs": [],
      "name": "startVotingSession",
      "outputs": [],
      "stateMutability": "nonpayable",
      "type": "function"
    },
    {
      "inputs": [],
      "name": "endVotingSession",
      "outputs": [],
      "stateMutability": "nonpayable",
      "type": "function"
    },
    {
      "inputs": [],
      "name": "tallyVotes",
      "outputs": [],
      "stateMutability": "nonpayable",
      "type": "function"
    }
  ],
  "bytecode": "0x60806040523480156200001157600080fd5b5062000032620000266200003860201b60201c565b6200004060201b60201c565b62000104565b600033905090565b60008060009054906101000a900473ffffffffffffffffffffffffffffffffffffffff169050816000806101000a81548173ffffffffffffffffffffffffffffffffffffffff021916908373ffffffffffffffffffffffffffffffffffffffff1602179055508173ffffffffffffffffffffffffffffffffffffffff168173ffffffffffffffffffffffffffffffffffffffff167f8be0079c531659141344cd1fd0a4f28419497f9722a3daafe3b4186f6b6457e060405160405180910390a35050565b61277580620001146000396000f3fe608060405234801561001057600080fd5b50600436106101005760003560e01c8063bdc0143111610097578063ee74c67811610066578063ee74c67814610229578063f2fde38b14610233578063f4ab9adf1461024f578063f86c67791461026b57610100565b8063bdc01431146101c7578063c7038a4e146101e5578063c88af42f146101ef578063d4f50f98146101f957610100565b80638da5cb5b116100d35780638da5cb5b14610151578063a1edffa21461016f578063a2788cce1461018d578063a7bfab16146101bd57610100565b8063230796ae146101055780632fdae3c514610121578063378a21781461013d578063715018a614610147575b600080fd5b61011f600480360381019061011a919061188c565b61029c565b005b61013b600480360381019061013691906119ff565b610597565b005b610145610823565b005b61014f610a04565b005b610159610a8c565b6040516101669190611a89565b60405180910390f35b610177610ab5565b6040516101849190611b1b565b60405180910390f35b6101a760048036038101906101a2919061188c565b610ac8565b6040516101b49190611c0a565b60405180910390f35b6101c5610c2f565b005b6101cf610d89565b6040516101dc9190611c3b565b60405180910390f35b6101ed610d8f565b005b6101f7610ee9565b005b610213600480360381019061020e9190611c82565b611042565b6040516102209190611d0c565b60405180910390f35b61023161116a565b005b61024d60048036038101906102489190611c82565b6112c4565b005b61026960048036038101906102649190611c82565b6113bb565b005b6102856004803603810190610280919061188c565b6115d8565b604051610293929190611d71565b60405180910390f35b600460003373ffffffffffffffffffffffffffffffffffffffff1673ffffffffffffffffffffffffffffffffffffffff16815260200190815260200160002060000160009054906101000a900460ff1661032b576040517f08c379a000000000000000000000000000000000000000000000000000000000815260040161032290611ded565b60405180910390fd5b6003600581111561033f5761033e611aa4565b5b600260009054906101000a900460ff16600581111561036157610360611aa4565b5b146103a1576040517f08c379a000000000000000000000000000000000000000000000000000000000815260040161039890611e7f565b60405180910390fd5b60011515600460003373ffffffffffffffffffffffffffffffffffffffff1673ffffffffffffffffffffffffffffffffffffffff16815260200190815260200160002060000160019054906101000a900460ff16151503610437576040517f08c379a000000000000000000000000000000000000000000000000000000000815260040161042e90611eeb565b60405180910390fd5b600380549050811061047e576040517f08c379a000000000000000000000000000000000000000000000000000000000815260040161047590611f57565b60405180910390fd5b80600460003373ffffffffffffffffffffffffffffffffffffffff1673ffffffffffffffffffffffffffffffffffffffff168152602001908152602001600020600101819055506001600460003373ffffffffffffffffffffffffffffffffffffffff1673ffffffffffffffffffffffffffffffffffffffff16815260200190815260200160002060000160016101000a81548160ff0219169083151502179055506003818154811061053457610533611f77565b5b9060005260206000209060020201600101600081548092919061055690611fd5565b91905055507f4d99b957a2bc29a30ebd96a7be8e68fe50a3c701db28a91436490b7d53870ca4338260405161058c92919061201d565b60405180910390a150565b600460003373ffffffffffffffffffffffffffffffffffffffff1673ffffffffffffffffffffffffffffffffffffffff16815260200190815260200160002060000160009054906101000a900460ff16610626576040517f08c379a000000000000000000000000000000000000000000000000000000000815260040161061d90611ded565b60405180910390fd5b6064600380549050111561066f576040517f08c379a0000000000000000000000000000000000000000000000000000000008152600401610666906120b8565b60405180910390fd5b6001600581111561068357610682611aa4565b5b600260009054906101000a900460ff1660058111156106a5576106a4611aa4565b5b146106e5576040517f08c379a00000000000000000000000000000000000000000000000000000000081526004016106dc90612124565b60405180910390fd5b6040516020016106f49061216a565b604051602081830303815290604052805190602001208160405160200161071b919061218a565b6040516020818303038152906040528051906020012003610771576040517f08c379a00000000000000000000000000000000000000000000000000000000081526004016107689061221e565b60405180910390fd5b610779611760565b818160000181905250600381908060018154018082558091505060019003906000526020600020906002020160009091909190915060008201518160000190805190602001906107ca92919061177a565b506020820151816001015550507f92e393e9b54e2f801d3ea4beb0c5e71a21cc34a5d34b77d0fb8a3aa1650dc18f600160038054905061080a919061223e565b6040516108179190611c3b565b60405180910390a15050565b61082b611694565b73ffffffffffffffffffffffffffffffffffffffff16610849610a8c565b73ffffffffffffffffffffffffffffffffffffffff161461089f576040517f08c379a0000000000000000000000000000000000000000000000000000000008152600401610896906122be565b60405180910390fd5b600460058111156108b3576108b2611aa4565b5b600260009054906101000a900460ff1660058111156108d5576108d4611aa4565b5b14610915576040517f08c379a000000000000000000000000000000000000000000000000000000000815260040161090c90612350565b60405180910390fd5b600080600090505b600380549050811015610993576003828154811061093e5761093d611f77565b5b9060005260206000209060020201600101546003828154811061096457610963611f77565b5b9060005260206000209060020201600101541115610980578091505b808061098b90611fd5565b91505061091d565b50806001819055506005600260006101000a81548160ff021916908360058111156109c1576109c0611aa4565b5b02179055507f0a97a4ee45751e2abf3e4fc8946939630b11b371ea8ae39ccdc3056e98f5cc3f600460056040516109f9929190612370565b60405180910390a150565b610a0c611694565b73ffffffffffffffffffffffffffffffffffffffff16610a2a610a8c565b73ffffffffffffffffffffffffffffffffffffffff1614610a80576040517f08c379a0000000000000000000000000000000000000000000000000000000008152600401610a77906122be565b60405180910390fd5b610a8a600061169c565b565b60008060009054906101000a900473ffffffffffffffffffffffffffffffffffffffff16905090565b600260009054906101000a900460ff1681565b610ad0611760565b600460003373ffffffffffffffffffffffffffffffffffffffff1673ffffffffffffffffffffffffffffffffffffffff16815260200190815260200160002060000160009054906101000a900460ff16610b5f576040517f08c379a0000000000000000000000000000000000000000000000000000000008152600401610b5690611ded565b60405180910390fd5b60038281548110610b7357610b72611f77565b5b9060005260206000209060020201604051806040016040529081600082018054610b9c906123c8565b80601f0160208091040260200160405190810160405280929190818152602001828054610bc8906123c8565b8015610c155780601f10610bea57610100808354040283529160200191610c15565b820191906000526020600020905b815481529060010190602001808311610bf857829003601f168201915b505050505081526020016001820154815250509050919050565b610c37611694565b73ffffffffffffffffffffffffffffffffffffffff16610c55610a8c565b73ffffffffffffffffffffffffffffffffffffffff1614610cab576040517f08c379a0000000000000000000000000000000000000000000000000000000008152600401610ca2906122be565b60405180910390fd5b60036005811115610cbf57610cbe611aa4565b5b600260009054906101000a900460ff166005811115610ce157610ce0611aa4565b5b14610d21576040517f08c379a0000000000000000000000000000000000000000000000000000000008152600401610d1890611e7f565b60405180910390fd5b6004600260006101000a81548160ff02191690836005811115610d4757610d46611aa4565b5b02179055507f0a97a4ee45751e2abf3e4fc8946939630b11b371ea8ae39ccdc3056e98f5cc3f60036004604051610d7f929190612370565b60405180910390a1565b60015481565b610d97611694565b73ffffffffffffffffffffffffffffffffffffffff16610db5610a8c565b73ffffffffffffffffffffffffffffffffffffffff1614610e0b576040517f08c379a0000000000000000000000000000000000000000000000000000000008152600401610e02906122be565b60405180910390fd5b60006005811115610e1f57610e1e611aa4565b5b600260009054906101000a900460ff166005811115610e4157610e40611aa4565b5b14610e81576040517f08c379a0000000000000000000000000000000000000000000000000000000008152600401610e789061246b565b60405180910390fd5b6001600260006101000a81548160ff02191690836005811115610ea757610ea6611aa4565b5b02179055507f0a97a4ee45751e2abf3e4fc8946939630b11b371ea8ae39ccdc3056e98f5cc3f60006001604051610edf929190612370565b60405180910390a1565b610ef1611694565b73ffffffffffffffffffffffffffffffffffffffff16610f0f610a8c565b73ffffffffffffffffffffffffffffffffffffffff1614610f65576040517f08c379a0000000000000000000000000000000000000000000000000000000008152600401610f5c906122be565b60405180910390fd5b60016005811115610f7957610f78611aa4565b5b600260009054906101000a900460ff166005811115610f9b57610f9a611aa4565b5b14610fdb576040517f08c379a0000000000000000000000000000000000000000000000000000000008152600401610fd2906124fd565b60405180910390fd5b60028060006101000a81548160ff0219169083600581111561100057610fff611aa4565b5b02179055507f0a97a4ee45751e2abf3e4fc8946939630b11b371ea8ae39ccdc3056e98f5cc3f60016002604051611038929190612370565b60405180910390a1565b61104a611800565b600460003373ffffffffffffffffffffffffffffffffffffffff1673ffffffffffffffffffffffffffffffffffffffff16815260200190815260200160002060000160009054906101000a900460ff166110d9576040517f08c379a00000000000000000000000000000000000000000000000000000000081526004016110d090611ded565b60405180910390fd5b600460008373ffffffffffffffffffffffffffffffffffffffff1673ffffffffffffffffffffffffffffffffffffffff1681526020019081526020016000206040518060600160405290816000820160009054906101000a900460ff161515151581526020016000820160019054906101000a900460ff161515151581526020016001820154815250509050919050565b611172611694565b73ffffffffffffffffffffffffffffffffffffffff16611190610a8c565b73ffffffffffffffffffffffffffffffffffffffff16146111e6576040517f08c379a00000000000000000000000000000000000000000000000000000000081526004016111dd906122be565b60405180910390fd5b600260058111156111fa576111f9611aa4565b5b600260009054906101000a900460ff16600581111561121c5761121b611aa4565b5b1461125c576040517f08c379a00000000000000000000000000000000000000000000000000000000081526004016112539061258f565b60405180910390fd5b6003600260006101000a81548160ff0219169083600581111561128257611281611aa4565b5b02179055507f0a97a4ee45751e2abf3e4fc8946939630b11b371ea8ae39ccdc3056e98f5cc3f600260036040516112ba929190612370565b60405180910390a1565b6112cc611694565b73ffffffffffffffffffffffffffffffffffffffff166112ea610a8c565b73ffffffffffffffffffffffffffffffffffffffff1614611340576040517f08c379a0000000000000000000000000000000000000000000000000000000008152600401611337906122be565b60405180910390fd5b600073ffffffffffffffffffffffffffffffffffffffff168173ffffffffffffffffffffffffffffffffffffffff16036113af576040517f08c379a00000000000000000000000000000000000000000000000000000000081526004016113a690612621565b60405180910390fd5b6113b88161169c565b50565b6113c3611694565b73ffffffffffffffffffffffffffffffffffffffff166113e1610a8c565b73ffffffffffffffffffffffffffffffffffffffff1614611437576040517f08c379a000000000000000000000000000000000000000000000000000000000815260040161142e906122be565b60405180910390fd5b6000600581111561144b5761144a611aa4565b5b600260009054906101000a900460ff16600581111561146d5761146c611aa4565b5b146114ad576040517f08c379a00000000000000000000000000000000000000000000000000000000081526004016114a4906126b3565b60405180910390fd5b60011515600460008373ffffffffffffffffffffffffffffffffffffffff1673ffffffffffffffffffffffffffffffffffffffff16815260200190815260200160002060000160009054906101000a900460ff16151503611543576040517f08c379a000000000000000000000000000000000000000000000000000000000815260040161153a9061271f565b60405180910390fd5b6001600460008373ffffffffffffffffffffffffffffffffffffffff1673ffffffffffffffffffffffffffffffffffffffff16815260200190815260200160002060000160006101000a81548160ff0219169083151502179055507fb6be2187d059cc2a55fe29e0e503b566e1e0f8c8780096e185429350acffd3dd816040516115cd9190611a89565b60405180910390a150565b600381815481106115e857600080fd5b906000526020600020906002020160009150905080600001805461160b906123c8565b80601f0160208091040260200160405190810160405280929190818152602001828054611637906123c8565b80156116845780601f1061165957610100808354040283529160200191611684565b820191906000526020600020905b81548152906001019060200180831161166757829003601f168201915b5050505050908060010154905082565b600033905090565b60008060009054906101000a900473ffffffffffffffffffffffffffffffffffffffff169050816000806101000a81548173ffffffffffffffffffffffffffffffffffffffff021916908373ffffffffffffffffffffffffffffffffffffffff1602179055508173ffffffffffffffffffffffffffffffffffffffff168173ffffffffffffffffffffffffffffffffffffffff167f8be0079c531659141344cd1fd0a4f28419497f9722a3daafe3b4186f6b6457e060405160405180910390a35050565b604051806040016040528060608152602001600081525090565b828054611786906123c8565b90600052602060002090601f0160209004810192826117a857600085556117ef565b82601f106117c157805160ff19168380011785556117ef565b828001600101855582156117ef579182015b828111156117ee5782518255916020019190600101906117d3565b5b5090506117fc9190611825565b5090565b6040518060600160405280600015158152602001600015158152602001600081525090565b5b8082111561183e576000816000905550600101611826565b5090565b6000604051905090565b600080fd5b600080fd5b6000819050919050565b61186981611856565b811461187457600080fd5b50565b60008135905061188681611860565b92915050565b6000602082840312156118a2576118a161184c565b5b60006118b084828501611877565b91505092915050565b600080fd5b600080fd5b6000601f19601f8301169050919050565b7f4e487b7100000000000000000000000000000000000000000000000000000000600052604160045260246000fd5b61190c826118c3565b810181811067ffffffffffffffff8211171561192b5761192a6118d4565b5b80604052505050565b600061193e611842565b905061194a8282611903565b919050565b600067ffffffffffffffff82111561196a576119696118d4565b5b611973826118c3565b9050602081019050919050565b82818337600083830152505050565b60006119a261199d8461194f565b611934565b9050828152602081018484840111156119be576119bd6118be565b5b6119c9848285611980565b509392505050565b600082601f8301126119e6576119e56118b9565b5b81356119f684826020860161198f565b91505092915050565b600060208284031215611a1557611a1461184c565b5b600082013567ffffffffffffffff811115611a3357611a32611851565b5b611a3f848285016119d1565b91505092915050565b600073ffffffffffffffffffffffffffffffffffffffff82169050919050565b6000611a7382611a48565b9050919050565b611a8381611a68565b82525050565b6000602082019050611a9e6000830184611a7a565b92915050565b7f4e487b7100000000000000000000000000000000000000000000000000000000600052602160045260246000fd5b60068110611ae457611ae3611aa4565b5b50565b6000819050611af582611ad3565b919050565b6000611b0582611ae7565b9050919050565b611b1581611afa565b82525050565b6000602082019050611b306000830184611b0c565b92915050565b600081519050919050565b600082825260208201905092915050565b60005b83811015611b70578082015181840152602081019050611b55565b83811115611b7f576000848401525b50505050565b6000611b9082611b36565b611b9a8185611b41565b9350611baa818560208601611b52565b611bb3816118c3565b840191505092915050565b611bc781611856565b82525050565b60006040830160008301518482036000860152611bea8282611b85565b9150506020830151611bff6020860182611bbe565b508091505092915050565b60006020820190508181036000830152611c248184611bcd565b905092915050565b611c3581611856565b82525050565b6000602082019050611c506000830184611c2c565b92915050565b611c5f81611a68565b8114611c6a57600080fd5b50565b600081359050611c7c81611c56565b92915050565b600060208284031215611c9857611c9761184c565b5b6000611ca684828501611c6d565b91505092915050565b60008115159050919050565b611cc481611caf565b82525050565b606082016000820151611ce06000850182611cbb565b506020820151611cf36020850182611cbb565b506040820151611d066040850182611bbe565b50505050565b6000606082019050611d216000830184611cca565b92915050565b600082825260208201905092915050565b6000611d4382611b36565b611d4d8185611d27565b9350611d5d818560208601611b52565b611d66816118c3565b840191505092915050565b60006040820190508181036000830152611d8b8185611d38565b9050611d9a6020830184611c2c565b9392505050565b7f596f75277265206e6f74206120766f7465720000000000000000000000000000600082015250565b6000611dd7601283611d27565b9150611de282611da1565b602082019050919050565b60006020820190508181036000830152611e0681611dca565b9050919050565b7f566f74696e672073657373696f6e20686176656e74207374617274656420796560008201527f7400000000000000000000000000000000000000000000000000000000000000602082015250565b6000611e69602183611d27565b9150611e7482611e0d565b604082019050919050565b60006020820190508181036000830152611e9881611e5c565b9050919050565b7f596f75206861766520616c726561647920766f74656400000000000000000000600082015250565b6000611ed5601683611d27565b9150611ee082611e9f565b602082019050919050565b60006020820190508181036000830152611f0481611ec8565b9050919050565b7f50726f706f73616c206e6f7420666f756e640000000000000000000000000000600082015250565b6000611f41601283611d27565b9150611f4c82611f0b565b602082019050919050565b60006020820190508181036000830152611f7081611f34565b9050919050565b7f4e487b7100000000000000000000000000000000000000000000000000000000600052603260045260246000fd5b7f4e487b7100000000000000000000000000000000000000000000000000000000600052601160045260246000fd5b6000611fe082611856565b91507fffffffffffffffffffffffffffffffffffffffffffffffffffffffffffffffff820361201257612011611fa6565b5b600182019050919050565b60006040820190506120326000830185611a7a565b61203f6020830184611c2c565b9392505050565b7f50726f706f73616c7320616d6d6f756e74206973206f7665722028313030206d60008201527f6178290000000000000000000000000000000000000000000000000000000000602082015250565b60006120a2602383611d27565b91506120ad82612046565b604082019050919050565b600060208201905081810360008301526120d181612095565b9050919050565b7f50726f706f73616c7320617265206e6f7420616c6c6f77656420796574000000600082015250565b600061210e601d83611d27565b9150612119826120d8565b602082019050919050565b6000602082019050818103600083015261213d81612101565b9050919050565b50565b6000612154600083611d27565b915061215f82612144565b600082019050919050565b6000602082019050818103600083015261218381612147565b9050919050565b600060208201905081810360008301526121a48184611d38565b905092915050565b7f566f7573206e6520706f7576657a20706173206e65207269656e2070726f706f60008201527f7365720000000000000000000000000000000000000000000000000000000000602082015250565b6000612208602383611d27565b9150612213826121ac565b604082019050919050565b60006020820190508181036000830152612237816121fb565b9050919050565b600061224982611856565b915061225483611856565b92508282101561226757612266611fa6565b5b828203905092915050565b7f4f776e61626c653a2063616c6c6572206973206e6f7420746865206f776e6572600082015250565b60006122a8602083611d27565b91506122b382612272565b602082019050919050565b600060208201905081810360008301526122d78161229b565b9050919050565b7f43757272656e7420737461747573206973206e6f7420766f74696e672073657360008201527f73696f6e20656e64656400000000000000000000000000000000000000000000602082015250565b600061233a602a83611d27565b9150612345826122de565b604082019050919050565b600060208201905081810360008301526123698161232d565b9050919050565b60006040820190506123856000830185611b0c565b6123926020830184611b0c565b9392505050565b7f4e487b7100000000000000000000000000000000000000000000000000000000600052602260045260246000fd5b600060028204905060018216806123e057607f821691505b6020821081036123f3576123f2612399565b5b50919050565b7f5265676973746572696e672070726f706f73616c732063616e7420626520737460008201527f6172746564206e6f770000000000000000000000000000000000000000000000602082015250565b6000612455602983611d27565b9150612460826123f9565b604082019050919050565b6000602082019050818103600083015261248481612448565b9050919050565b7f5265676973746572696e672070726f706f73616c7320686176656e742073746160008201527f7274656420796574000000000000000000000000000000000000000000000000602082015250565b60006124e7602883611d27565b91506124f28261248b565b604082019050919050565b60006020820190508181036000830152612516816124da565b9050919050565b7f5265676973746572696e672070726f706f73616c73207068617365206973206e60008201527f6f742066696e6973686564000000000000000000000000000000000000000000602082015250565b6000612579602b83611d27565b91506125848261251d565b604082019050919050565b600060208201905081810360008301526125a88161256c565b9050919050565b7f4f776e61626c653a206e6577206f776e657220697320746865207a65726f206160008201527f6464726573730000000000000000000000000000000000000000000000000000602082015250565b600061260b602683611d27565b9150612616826125af565b604082019050919050565b6000602082019050818103600083015261263a816125fe565b9050919050565b7f566f7465727320726567697374726174696f6e206973206e6f74206f70656e2060008201527f7965740000000000000000000000000000000000000000000000000000000000602082015250565b600061269d602383611d27565b91506126a882612641565b604082019050919050565b600060208201905081810360008301526126cc81612690565b9050919050565b7f416c726561647920726567697374657265640000000000000000000000000000600082015250565b6000612709601283611d27565b9150612714826126d3565b602082019050919050565b60006020820190508181036000830152612738816126fc565b905091905056fea264697066735822122097da3049a03a0781b68da8e8aa0f93614a7332dfb0beb916f3ab9a277699f68a64736f6c634300080d0033",
  "immutableReferences": {},
  "source": "// SPDX-License-Identifier: MIT\n\npragma solidity 0.8.13;\nimport \"@openzeppelin/contracts/access/Ownable.sol\";\n\n/**\n * @title Voting project for Alyra School\n * @author Teddy Blanco [tonted]\n */\ncontract Voting is Ownable {\n    uint256 public winningProposalID;\n\n    WorkflowStatus public workflowStatus;\n    Proposal[] public proposalsArray;\n    mapping(address => Voter) private voters;\n\n    struct Voter {\n        bool isRegistered;\n        bool hasVoted;\n        uint256 votedProposalId;\n    }\n\n    struct Proposal {\n        string description;\n        uint256 voteCount;\n    }\n\n    enum WorkflowStatus {\n        RegisteringVoters,\n        ProposalsRegistrationStarted,\n        ProposalsRegistrationEnded,\n        VotingSessionStarted,\n        VotingSessionEnded,\n        VotesTallied\n    }\n\n    event VoterRegistered(address voterAddress);\n    event WorkflowStatusChange(\n        WorkflowStatus previousStatus,\n        WorkflowStatus newStatus\n    );\n    event ProposalRegistered(uint256 proposalId);\n    event Voted(address voter, uint256 proposalId);\n\n    modifier onlyVoters() {\n        require(voters[msg.sender].isRegistered, \"You're not a voter\");\n        _;\n    }\n\n    modifier only100proposals() {\n        require(proposalsArray.length <= 100, \"Proposals ammount is over (100 max)\");\n        _;\n    }\n\n    // ::::::::::::: GETTERS ::::::::::::: //\n    /*\n     * @notice Can be only call by registered voter.\n     * @param _addr The address of a voter\n     * @return Voter (bool: isRegistered, bool: hasVoted, uint: votedProposalId)\n     */\n    function getVoter(address _addr) external view onlyVoters returns (Voter memory){\n        return voters[_addr];\n    }\n\n    /*\n     * @notice Can be only call by registered voter.\n     * @param _id The id of the proposal\n     * @return Proposal (string: description, uint256: voteCount)\n     */\n    function getOneProposal(uint256 _id) external view onlyVoters returns (Proposal memory){\n        return proposalsArray[_id];\n    }\n\n    // ::::::::::::: REGISTRATION ::::::::::::: //\n    /*\n     * @notice Can be only call by owner.\n     * Add a voter in the whitelist, and can be add proposals and vote during their session.\n     * @param _addr The address of a voter\n     * Emits VoterRegistered (address: voterAddress) event.\n     */\n    function addVoter(address _addr) public onlyOwner {\n        require(workflowStatus == WorkflowStatus.RegisteringVoters,\n\t\t\"Voters registration is not open yet\");\n        require(voters[_addr].isRegistered != true, \"Already registered\");\n\n        voters[_addr].isRegistered = true;\n        emit VoterRegistered(_addr);\n    }\n\n    // ::::::::::::: PROPOSAL ::::::::::::: //\n    /*\n     * @notice Can be only call by voters.\n     * Add a proposal, limits is 100 proposals.\n     * @param _desc The description of the proposal\n     * Emits ProposalRegistered (uint256 proposalId) event.\n     */\n    function addProposal(string memory _desc) external onlyVoters only100proposals {\n        require( workflowStatus == WorkflowStatus.ProposalsRegistrationStarted,\n            \"Proposals are not allowed yet\"\n        );\n        require(\n            keccak256(abi.encode(_desc)) != keccak256(abi.encode(\"\")),\n            \"Vous ne pouvez pas ne rien proposer\"\n        );\n\n        Proposal memory proposal;\n        proposal.description = _desc;\n        proposalsArray.push(proposal);\n        emit ProposalRegistered(proposalsArray.length - 1);\n    }\n\n    // ::::::::::::: VOTE ::::::::::::: //\n\n    /*\n     * @notice Can be only call by voters.\n     * Vote for one proposal only.\n     * See `getOneProposal(uint _id)` for check the proposal decription.\n     * @param _id the id of the proposal.\n     * Emits ProposalRegistered (uint256 proposalId) event.\n     */\n    function setVote(uint256 _id) external onlyVoters {\n        require(\n            workflowStatus == WorkflowStatus.VotingSessionStarted,\n            \"Voting session havent started yet\"\n        );\n        require(voters[msg.sender].hasVoted != true, \"You have already voted\");\n        require(_id < proposalsArray.length, \"Proposal not found\"); // pas oblig, et pas besoin du >0 car uint\n\n        voters[msg.sender].votedProposalId = _id;\n        voters[msg.sender].hasVoted = true;\n        proposalsArray[_id].voteCount++;\n\n        emit Voted(msg.sender, _id);\n    }\n\n    // ::::::::::::: STATE ::::::::::::: //\n    /*\n     * @notice Can be only call by owner.\n     * End the voter registration and start the proposal registering\n     * Emits WorkflowStatusChange(WorkflowStatus previousStatus, WorkflowStatus newStatus) event.\n     */\n    function startProposalsRegistering() external onlyOwner {\n        require(\n            workflowStatus == WorkflowStatus.RegisteringVoters,\n            \"Registering proposals cant be started now\"\n        );\n        workflowStatus = WorkflowStatus.ProposalsRegistrationStarted;\n        emit WorkflowStatusChange(\n            WorkflowStatus.RegisteringVoters,\n            WorkflowStatus.ProposalsRegistrationStarted\n        );\n    }\n\n    /*\n     * @notice Can be only call by owner.\n     * End the proposal registering\n     * Emits WorkflowStatusChange(WorkflowStatus previousStatus, WorkflowStatus newStatus) event.\n     */\n    function endProposalsRegistering() external onlyOwner {\n        require(\n            workflowStatus == WorkflowStatus.ProposalsRegistrationStarted,\n            \"Registering proposals havent started yet\"\n        );\n        workflowStatus = WorkflowStatus.ProposalsRegistrationEnded;\n        emit WorkflowStatusChange(\n            WorkflowStatus.ProposalsRegistrationStarted,\n            WorkflowStatus.ProposalsRegistrationEnded\n        );\n    }\n\n    /*\n     * @notice Can be only call by owner.\n     * Start the voting registering\n     * Emits WorkflowStatusChange(WorkflowStatus previousStatus, WorkflowStatus newStatus) event.\n     */\n    function startVotingSession() external onlyOwner {\n        require(\n            workflowStatus == WorkflowStatus.ProposalsRegistrationEnded,\n            \"Registering proposals phase is not finished\"\n        );\n        workflowStatus = WorkflowStatus.VotingSessionStarted;\n        emit WorkflowStatusChange(\n            WorkflowStatus.ProposalsRegistrationEnded,\n            WorkflowStatus.VotingSessionStarted\n        );\n    }\n\n    /*\n     * @notice Can be only call by owner.\n     * End the voting registering\n     * Emits WorkflowStatusChange(WorkflowStatus previousStatus, WorkflowStatus newStatus) event.\n     */\n    function endVotingSession() external onlyOwner {\n        require(\n            workflowStatus == WorkflowStatus.VotingSessionStarted,\n            \"Voting session havent started yet\"\n        );\n        workflowStatus = WorkflowStatus.VotingSessionEnded;\n        emit WorkflowStatusChange(\n            WorkflowStatus.VotingSessionStarted,\n            WorkflowStatus.VotingSessionEnded\n        );\n    }\n\n    /*\n     * @notice Can be only call by owner.\n     * Check the proposal winner and set the winner\n     * see `winningProposalID`\n     * Emits WorkflowStatusChange(WorkflowStatus previousStatus, WorkflowStatus newStatus) event.\n     */\n    function tallyVotes() external onlyOwner {\n    \trequire(workflowStatus == WorkflowStatus.VotingSessionEnded, \"Current status is not voting session ended\");\n    \tuint _winningProposalId;\n    \tfor (uint256 p = 0; p < proposalsArray.length; p++) {\n        \tif (proposalsArray[p].voteCount > proposalsArray[_winningProposalId].voteCount) {\n               _winningProposalId = p;\n        \t}\n    \t}\n       winningProposalID = _winningProposalId;\n       \n       workflowStatus = WorkflowStatus.VotesTallied;\n       emit WorkflowStatusChange(WorkflowStatus.VotingSessionEnded, WorkflowStatus.VotesTallied);\n    }\n}",
  "sourcePath": "/Users/tonted/alyra/alyra_project3/contracts/1_voting.sol",
  "compiler": {
    "name": "solc",
    "version": "0.8.13+commit.abaa5c0e.Emscripten.clang"
  },
  "schemaVersion": "3.4.6",
  "updatedAt": "2022-04-25T14:06:01.297Z",
  "networkType": "ethereum",
  "devdoc": {
    "author": "Teddy Blanco [tonted]",
    "kind": "dev",
    "methods": {
      "owner()": {
        "details": "Returns the address of the current owner."
      },
      "renounceOwnership()": {
        "details": "Leaves the contract without owner. It will not be possible to call `onlyOwner` functions anymore. Can only be called by the current owner. NOTE: Renouncing ownership will leave the contract without an owner, thereby removing any functionality that is only available to the owner."
      },
      "transferOwnership(address)": {
        "details": "Transfers ownership of the contract to a new account (`newOwner`). Can only be called by the current owner."
      }
    },
    "title": "Voting project for Alyra School",
    "version": 1
  },
  "userdoc": {
    "kind": "user",
    "methods": {},
    "version": 1
  }
}