{
  "contractName": "Voting",
  "abi": [
    {
      "inputs": [],
      "stateMutability": "nonpayable",
      "type": "constructor"
    },
    {
      "anonymous": false,
      "inputs": [
        {
          "indexed": true,
          "internalType": "address",
          "name": "previousOwner",
          "type": "address"
        },
        {
          "indexed": true,
          "internalType": "address",
          "name": "newOwner",
          "type": "address"
        }
      ],
      "name": "OwnershipTransferred",
      "type": "event"
    },
    {
      "anonymous": false,
      "inputs": [
        {
          "indexed": false,
          "internalType": "uint256",
          "name": "proposalId",
          "type": "uint256"
        }
      ],
      "name": "ProposalRegistered",
      "type": "event"
    },
    {
      "anonymous": false,
      "inputs": [
        {
          "indexed": false,
          "internalType": "address",
          "name": "voter",
          "type": "address"
        },
        {
          "indexed": false,
          "internalType": "uint256",
          "name": "proposalId",
          "type": "uint256"
        }
      ],
      "name": "Voted",
      "type": "event"
    },
    {
      "anonymous": false,
      "inputs": [
        {
          "indexed": false,
          "internalType": "address",
          "name": "voterAddress",
          "type": "address"
        }
      ],
      "name": "VoterRegistered",
      "type": "event"
    },
    {
      "anonymous": false,
      "inputs": [
        {
          "indexed": false,
          "internalType": "enum Voting.WorkflowStatus",
          "name": "previousStatus",
          "type": "uint8"
        },
        {
          "indexed": false,
          "internalType": "enum Voting.WorkflowStatus",
          "name": "newStatus",
          "type": "uint8"
        }
      ],
      "name": "WorkflowStatusChange",
      "type": "event"
    },
    {
      "inputs": [],
      "name": "owner",
      "outputs": [
        {
          "internalType": "address",
          "name": "",
          "type": "address"
        }
      ],
      "stateMutability": "view",
      "type": "function",
      "constant": true
    },
    {
      "inputs": [
        {
          "internalType": "uint256",
          "name": "",
          "type": "uint256"
        }
      ],
      "name": "proposalsArray",
      "outputs": [
        {
          "internalType": "string",
          "name": "description",
          "type": "string"
        },
        {
          "internalType": "uint256",
          "name": "voteCount",
          "type": "uint256"
        }
      ],
      "stateMutability": "view",
      "type": "function",
      "constant": true
    },
    {
      "inputs": [],
      "name": "renounceOwnership",
      "outputs": [],
      "stateMutability": "nonpayable",
      "type": "function"
    },
    {
      "inputs": [
        {
          "internalType": "address",
          "name": "newOwner",
          "type": "address"
        }
      ],
      "name": "transferOwnership",
      "outputs": [],
      "stateMutability": "nonpayable",
      "type": "function"
    },
    {
      "inputs": [],
      "name": "winningProposalID",
      "outputs": [
        {
          "internalType": "uint256",
          "name": "",
          "type": "uint256"
        }
      ],
      "stateMutability": "view",
      "type": "function",
      "constant": true
    },
    {
      "inputs": [],
      "name": "workflowStatus",
      "outputs": [
        {
          "internalType": "enum Voting.WorkflowStatus",
          "name": "",
          "type": "uint8"
        }
      ],
      "stateMutability": "view",
      "type": "function",
      "constant": true
    },
    {
      "inputs": [
        {
          "internalType": "address",
          "name": "_addr",
          "type": "address"
        }
      ],
      "name": "getVoter",
      "outputs": [
        {
          "components": [
            {
              "internalType": "bool",
              "name": "isRegistered",
              "type": "bool"
            },
            {
              "internalType": "bool",
              "name": "hasVoted",
              "type": "bool"
            },
            {
              "internalType": "uint256",
              "name": "votedProposalId",
              "type": "uint256"
            }
          ],
          "internalType": "struct Voting.Voter",
          "name": "",
          "type": "tuple"
        }
      ],
      "stateMutability": "view",
      "type": "function",
      "constant": true
    },
    {
      "inputs": [
        {
          "internalType": "uint256",
          "name": "_id",
          "type": "uint256"
        }
      ],
      "name": "getOneProposal",
      "outputs": [
        {
          "components": [
            {
              "internalType": "string",
              "name": "description",
              "type": "string"
            },
            {
              "internalType": "uint256",
              "name": "voteCount",
              "type": "uint256"
            }
          ],
          "internalType": "struct Voting.Proposal",
          "name": "",
          "type": "tuple"
        }
      ],
      "stateMutability": "view",
      "type": "function",
      "constant": true
    },
    {
      "inputs": [
        {
          "internalType": "address",
          "name": "_addr",
          "type": "address"
        }
      ],
      "name": "addVoter",
      "outputs": [],
      "stateMutability": "nonpayable",
      "type": "function"
    },
    {
      "inputs": [
        {
          "internalType": "string",
          "name": "_desc",
          "type": "string"
        }
      ],
      "name": "addProposal",
      "outputs": [],
      "stateMutability": "nonpayable",
      "type": "function"
    },
    {
      "inputs": [
        {
          "internalType": "uint256",
          "name": "_id",
          "type": "uint256"
        }
      ],
      "name": "setVote",
      "outputs": [],
      "stateMutability": "nonpayable",
      "type": "function"
    },
    {
      "inputs": [],
      "name": "startProposalsRegistering",
      "outputs": [],
      "stateMutability": "nonpayable",
      "type": "function"
    },
    {
      "inputs": [],
      "name": "endProposalsRegistering",
      "outputs": [],
      "stateMutability": "nonpayable",
      "type": "function"
    },
    {
      "inputs": [],
      "name": "startVotingSession",
      "outputs": [],
      "stateMutability": "nonpayable",
      "type": "function"
    },
    {
      "inputs": [],
      "name": "endVotingSession",
      "outputs": [],
      "stateMutability": "nonpayable",
      "type": "function"
    },
    {
      "inputs": [],
      "name": "tallyVotes",
      "outputs": [],
      "stateMutability": "nonpayable",
      "type": "function"
    },
    {
      "inputs": [],
      "name": "resetWorklow",
      "outputs": [],
      "stateMutability": "nonpayable",
      "type": "function"
    },
    {
      "inputs": [],
      "name": "resetFlow",
      "outputs": [],
      "stateMutability": "nonpayable",
      "type": "function"
    }
  ],
  "bytecode": "0x60806040523480156200001157600080fd5b506200003262000026620006fc60201b60201c565b6200070460201b60201c565b60016004600073bf2c49df4a77f583c06a190ff71dd153fd84000a73ffffffffffffffffffffffffffffffffffffffff1673ffffffffffffffffffffffffffffffffffffffff16815260200190815260200160002060000160006101000a81548160ff0219169083151502179055506001600460007392218796747cb1b8490ef3275d81f028291f3e7c73ffffffffffffffffffffffffffffffffffffffff1673ffffffffffffffffffffffffffffffffffffffff16815260200190815260200160002060000160006101000a81548160ff02191690831515021790555060016004600073709c337524c506cf9584029e54c151efd6d2d43673ffffffffffffffffffffffffffffffffffffffff1673ffffffffffffffffffffffffffffffffffffffff16815260200190815260200160002060000160006101000a81548160ff0219169083151502179055506001600460007381ff5c6a3ee359ecbc7747740a4d16442180f83673ffffffffffffffffffffffffffffffffffffffff1673ffffffffffffffffffffffffffffffffffffffff16815260200190815260200160002060000160006101000a81548160ff021916908315150217905550600360405180604001604052806040518060400160405280600a81526020017f50726f706f73616c203000000000000000000000000000000000000000000000815250815260200160008152509080600181540180825580915050600190039060005260206000209060020201600090919091909150600082015181600001908051906020019062000282929190620007c8565b50602082015181600101555050600360405180604001604052806040518060400160405280600a81526020017f50726f706f73616c203100000000000000000000000000000000000000000000815250815260200160008152509080600181540180825580915050600190039060005260206000209060020201600090919091909150600082015181600001908051906020019062000323929190620007c8565b50602082015181600101555050600360405180604001604052806040518060400160405280600a81526020017f50726f706f73616c2032000000000000000000000000000000000000000000008152508152602001600081525090806001815401808255809150506001900390600052602060002090600202016000909190919091506000820151816000019080519060200190620003c4929190620007c8565b50602082015181600101555050600360405180604001604052806040518060400160405280600a81526020017f50726f706f73616c203300000000000000000000000000000000000000000000815250815260200160008152509080600181540180825580915050600190039060005260206000209060020201600090919091909150600082015181600001908051906020019062000465929190620007c8565b50602082015181600101555050600360405180604001604052806040518060400160405280600a81526020017f50726f706f73616c203400000000000000000000000000000000000000000000815250815260200160008152509080600181540180825580915050600190039060005260206000209060020201600090919091909150600082015181600001908051906020019062000506929190620007c8565b50602082015181600101555050600360405180604001604052806040518060400160405280600a81526020017f50726f706f73616c2035000000000000000000000000000000000000000000008152508152602001600081525090806001815401808255809150506001900390600052602060002090600202016000909190919091506000820151816000019080519060200190620005a7929190620007c8565b50602082015181600101555050600360405180604001604052806040518060400160405280600a81526020017f50726f706f73616c203600000000000000000000000000000000000000000000815250815260200160008152509080600181540180825580915050600190039060005260206000209060020201600090919091909150600082015181600001908051906020019062000648929190620007c8565b50602082015181600101555050600360405180604001604052806040518060400160405280600a81526020017f50726f706f73616c2037000000000000000000000000000000000000000000008152508152602001600081525090806001815401808255809150506001900390600052602060002090600202016000909190919091506000820151816000019080519060200190620006e9929190620007c8565b50602082015181600101555050620008dc565b600033905090565b60008060009054906101000a900473ffffffffffffffffffffffffffffffffffffffff169050816000806101000a81548173ffffffffffffffffffffffffffffffffffffffff021916908373ffffffffffffffffffffffffffffffffffffffff1602179055508173ffffffffffffffffffffffffffffffffffffffff168173ffffffffffffffffffffffffffffffffffffffff167f8be0079c531659141344cd1fd0a4f28419497f9722a3daafe3b4186f6b6457e060405160405180910390a35050565b828054620007d690620008a7565b90600052602060002090601f016020900481019282620007fa576000855562000846565b82601f106200081557805160ff191683800117855562000846565b8280016001018555821562000846579182015b828111156200084557825182559160200191906001019062000828565b5b50905062000855919062000859565b5090565b5b80821115620008745760008160009055506001016200085a565b5090565b7f4e487b7100000000000000000000000000000000000000000000000000000000600052602260045260246000fd5b60006002820490506001821680620008c057607f821691505b602082108103620008d657620008d562000878565b5b50919050565b612e9180620008ec6000396000f3fe608060405234801561001057600080fd5b50600436106101165760003560e01c8063a7bfab16116100a2578063d4f50f9811610071578063d4f50f9814610223578063ee74c67814610253578063f2fde38b1461025d578063f4ab9adf14610279578063f86c67791461029557610116565b8063a7bfab16146101e7578063bdc01431146101f1578063c7038a4e1461020f578063c88af42f1461021957610116565b80633d4b079d116100e95780633d4b079d14610167578063715018a6146101715780638da5cb5b1461017b578063a1edffa214610199578063a2788cce146101b757610116565b80630490a6af1461011b578063230796ae146101255780632fdae3c514610141578063378a21781461015d575b600080fd5b6101236102c6565b005b61013f600480360381019061013a919061203a565b61036f565b005b61015b600480360381019061015691906121ad565b61066a565b005b6101656108ad565b005b61016f610a8e565b005b6101796111b2565b005b61018361123a565b6040516101909190612237565b60405180910390f35b6101a1611263565b6040516101ae91906122c9565b60405180910390f35b6101d160048036038101906101cc919061203a565b611276565b6040516101de91906123b8565b60405180910390f35b6101ef6113dd565b005b6101f9611537565b60405161020691906123e9565b60405180910390f35b61021761153d565b005b610221611697565b005b61023d60048036038101906102389190612430565b6117f0565b60405161024a91906124ba565b60405180910390f35b61025b611918565b005b61027760048036038101906102729190612430565b611a72565b005b610293600480360381019061028e9190612430565b611b69565b005b6102af60048036038101906102aa919061203a565b611d86565b6040516102bd92919061251f565b60405180910390f35b6102ce611e42565b73ffffffffffffffffffffffffffffffffffffffff166102ec61123a565b73ffffffffffffffffffffffffffffffffffffffff1614610342576040517f08c379a00000000000000000000000000000000000000000000000000000000081526004016103399061259b565b60405180910390fd5b6000600260006101000a81548160ff0219169083600581111561036857610367612252565b5b0217905550565b600460003373ffffffffffffffffffffffffffffffffffffffff1673ffffffffffffffffffffffffffffffffffffffff16815260200190815260200160002060000160009054906101000a900460ff166103fe576040517f08c379a00000000000000000000000000000000000000000000000000000000081526004016103f590612607565b60405180910390fd5b6003600581111561041257610411612252565b5b600260009054906101000a900460ff16600581111561043457610433612252565b5b14610474576040517f08c379a000000000000000000000000000000000000000000000000000000000815260040161046b90612699565b60405180910390fd5b60011515600460003373ffffffffffffffffffffffffffffffffffffffff1673ffffffffffffffffffffffffffffffffffffffff16815260200190815260200160002060000160019054906101000a900460ff1615150361050a576040517f08c379a000000000000000000000000000000000000000000000000000000000815260040161050190612705565b60405180910390fd5b6003805490508110610551576040517f08c379a000000000000000000000000000000000000000000000000000000000815260040161054890612771565b60405180910390fd5b80600460003373ffffffffffffffffffffffffffffffffffffffff1673ffffffffffffffffffffffffffffffffffffffff168152602001908152602001600020600101819055506001600460003373ffffffffffffffffffffffffffffffffffffffff1673ffffffffffffffffffffffffffffffffffffffff16815260200190815260200160002060000160016101000a81548160ff0219169083151502179055506003818154811061060757610606612791565b5b90600052602060002090600202016001016000815480929190610629906127ef565b91905055507f4d99b957a2bc29a30ebd96a7be8e68fe50a3c701db28a91436490b7d53870ca4338260405161065f929190612837565b60405180910390a150565b600460003373ffffffffffffffffffffffffffffffffffffffff1673ffffffffffffffffffffffffffffffffffffffff16815260200190815260200160002060000160009054906101000a900460ff166106f9576040517f08c379a00000000000000000000000000000000000000000000000000000000081526004016106f090612607565b60405180910390fd5b6001600581111561070d5761070c612252565b5b600260009054906101000a900460ff16600581111561072f5761072e612252565b5b1461076f576040517f08c379a0000000000000000000000000000000000000000000000000000000008152600401610766906128ac565b60405180910390fd5b60405160200161077e906128f2565b60405160208183030381529060405280519060200120816040516020016107a59190612912565b60405160208183030381529060405280519060200120036107fb576040517f08c379a00000000000000000000000000000000000000000000000000000000081526004016107f2906129a6565b60405180910390fd5b610803611f0e565b81816000018190525060038190806001815401808255809150506001900390600052602060002090600202016000909190919091506000820151816000019080519060200190610854929190611f28565b506020820151816001015550507f92e393e9b54e2f801d3ea4beb0c5e71a21cc34a5d34b77d0fb8a3aa1650dc18f600160038054905061089491906129c6565b6040516108a191906123e9565b60405180910390a15050565b6108b5611e42565b73ffffffffffffffffffffffffffffffffffffffff166108d361123a565b73ffffffffffffffffffffffffffffffffffffffff1614610929576040517f08c379a00000000000000000000000000000000000000000000000000000000081526004016109209061259b565b60405180910390fd5b6004600581111561093d5761093c612252565b5b600260009054906101000a900460ff16600581111561095f5761095e612252565b5b1461099f576040517f08c379a000000000000000000000000000000000000000000000000000000000815260040161099690612a6c565b60405180910390fd5b600080600090505b600380549050811015610a1d57600382815481106109c8576109c7612791565b5b906000526020600020906002020160010154600382815481106109ee576109ed612791565b5b9060005260206000209060020201600101541115610a0a578091505b8080610a15906127ef565b9150506109a7565b50806001819055506005600260006101000a81548160ff02191690836005811115610a4b57610a4a612252565b5b02179055507f0a97a4ee45751e2abf3e4fc8946939630b11b371ea8ae39ccdc3056e98f5cc3f60046005604051610a83929190612a8c565b60405180910390a150565b610a96611e42565b73ffffffffffffffffffffffffffffffffffffffff16610ab461123a565b73ffffffffffffffffffffffffffffffffffffffff1614610b0a576040517f08c379a0000000000000000000000000000000000000000000000000000000008152600401610b019061259b565b60405180910390fd5b60016004600073bf2c49df4a77f583c06a190ff71dd153fd84000a73ffffffffffffffffffffffffffffffffffffffff1673ffffffffffffffffffffffffffffffffffffffff16815260200190815260200160002060000160006101000a81548160ff0219169083151502179055506001600460007392218796747cb1b8490ef3275d81f028291f3e7c73ffffffffffffffffffffffffffffffffffffffff1673ffffffffffffffffffffffffffffffffffffffff16815260200190815260200160002060000160006101000a81548160ff02191690831515021790555060016004600073709c337524c506cf9584029e54c151efd6d2d43673ffffffffffffffffffffffffffffffffffffffff1673ffffffffffffffffffffffffffffffffffffffff16815260200190815260200160002060000160006101000a81548160ff0219169083151502179055506001600460007381ff5c6a3ee359ecbc7747740a4d16442180f83673ffffffffffffffffffffffffffffffffffffffff1673ffffffffffffffffffffffffffffffffffffffff16815260200190815260200160002060000160006101000a81548160ff02191690831515021790555060405180604001604052806040518060400160405280600a81526020017f50726f706f73616c203000000000000000000000000000000000000000000000815250815260200160008152506003600081548110610d2657610d25612791565b5b90600052602060002090600202016000820151816000019080519060200190610d50929190611f28565b506020820151816001015590505060405180604001604052806040518060400160405280600a81526020017f50726f706f73616c203100000000000000000000000000000000000000000000815250815260200160008152506003600181548110610dbe57610dbd612791565b5b90600052602060002090600202016000820151816000019080519060200190610de8929190611f28565b506020820151816001015590505060405180604001604052806040518060400160405280600a81526020017f50726f706f73616c203200000000000000000000000000000000000000000000815250815260200160008152506003600281548110610e5657610e55612791565b5b90600052602060002090600202016000820151816000019080519060200190610e80929190611f28565b506020820151816001015590505060405180604001604052806040518060400160405280600a81526020017f50726f706f73616c2033000000000000000000000000000000000000000000008152508152602001600081525060038081548110610eed57610eec612791565b5b90600052602060002090600202016000820151816000019080519060200190610f17929190611f28565b506020820151816001015590505060405180604001604052806040518060400160405280600a81526020017f50726f706f73616c203400000000000000000000000000000000000000000000815250815260200160008152506003600481548110610f8557610f84612791565b5b90600052602060002090600202016000820151816000019080519060200190610faf929190611f28565b506020820151816001015590505060405180604001604052806040518060400160405280600a81526020017f50726f706f73616c20350000000000000000000000000000000000000000000081525081526020016000815250600360058154811061101d5761101c612791565b5b90600052602060002090600202016000820151816000019080519060200190611047929190611f28565b506020820151816001015590505060405180604001604052806040518060400160405280600a81526020017f50726f706f73616c2036000000000000000000000000000000000000000000008152508152602001600081525060036006815481106110b5576110b4612791565b5b906000526020600020906002020160008201518160000190805190602001906110df929190611f28565b506020820151816001015590505060405180604001604052806040518060400160405280600a81526020017f50726f706f73616c20370000000000000000000000000000000000000000000081525081526020016000815250600360078154811061114d5761114c612791565b5b90600052602060002090600202016000820151816000019080519060200190611177929190611f28565b50602082015181600101559050506000600260006101000a81548160ff021916908360058111156111ab576111aa612252565b5b0217905550565b6111ba611e42565b73ffffffffffffffffffffffffffffffffffffffff166111d861123a565b73ffffffffffffffffffffffffffffffffffffffff161461122e576040517f08c379a00000000000000000000000000000000000000000000000000000000081526004016112259061259b565b60405180910390fd5b6112386000611e4a565b565b60008060009054906101000a900473ffffffffffffffffffffffffffffffffffffffff16905090565b600260009054906101000a900460ff1681565b61127e611f0e565b600460003373ffffffffffffffffffffffffffffffffffffffff1673ffffffffffffffffffffffffffffffffffffffff16815260200190815260200160002060000160009054906101000a900460ff1661130d576040517f08c379a000000000000000000000000000000000000000000000000000000000815260040161130490612607565b60405180910390fd5b6003828154811061132157611320612791565b5b906000526020600020906002020160405180604001604052908160008201805461134a90612ae4565b80601f016020809104026020016040519081016040528092919081815260200182805461137690612ae4565b80156113c35780601f10611398576101008083540402835291602001916113c3565b820191906000526020600020905b8154815290600101906020018083116113a657829003601f168201915b505050505081526020016001820154815250509050919050565b6113e5611e42565b73ffffffffffffffffffffffffffffffffffffffff1661140361123a565b73ffffffffffffffffffffffffffffffffffffffff1614611459576040517f08c379a00000000000000000000000000000000000000000000000000000000081526004016114509061259b565b60405180910390fd5b6003600581111561146d5761146c612252565b5b600260009054906101000a900460ff16600581111561148f5761148e612252565b5b146114cf576040517f08c379a00000000000000000000000000000000000000000000000000000000081526004016114c690612699565b60405180910390fd5b6004600260006101000a81548160ff021916908360058111156114f5576114f4612252565b5b02179055507f0a97a4ee45751e2abf3e4fc8946939630b11b371ea8ae39ccdc3056e98f5cc3f6003600460405161152d929190612a8c565b60405180910390a1565b60015481565b611545611e42565b73ffffffffffffffffffffffffffffffffffffffff1661156361123a565b73ffffffffffffffffffffffffffffffffffffffff16146115b9576040517f08c379a00000000000000000000000000000000000000000000000000000000081526004016115b09061259b565b60405180910390fd5b600060058111156115cd576115cc612252565b5b600260009054906101000a900460ff1660058111156115ef576115ee612252565b5b1461162f576040517f08c379a000000000000000000000000000000000000000000000000000000000815260040161162690612b87565b60405180910390fd5b6001600260006101000a81548160ff0219169083600581111561165557611654612252565b5b02179055507f0a97a4ee45751e2abf3e4fc8946939630b11b371ea8ae39ccdc3056e98f5cc3f6000600160405161168d929190612a8c565b60405180910390a1565b61169f611e42565b73ffffffffffffffffffffffffffffffffffffffff166116bd61123a565b73ffffffffffffffffffffffffffffffffffffffff1614611713576040517f08c379a000000000000000000000000000000000000000000000000000000000815260040161170a9061259b565b60405180910390fd5b6001600581111561172757611726612252565b5b600260009054906101000a900460ff16600581111561174957611748612252565b5b14611789576040517f08c379a000000000000000000000000000000000000000000000000000000000815260040161178090612c19565b60405180910390fd5b60028060006101000a81548160ff021916908360058111156117ae576117ad612252565b5b02179055507f0a97a4ee45751e2abf3e4fc8946939630b11b371ea8ae39ccdc3056e98f5cc3f600160026040516117e6929190612a8c565b60405180910390a1565b6117f8611fae565b600460003373ffffffffffffffffffffffffffffffffffffffff1673ffffffffffffffffffffffffffffffffffffffff16815260200190815260200160002060000160009054906101000a900460ff16611887576040517f08c379a000000000000000000000000000000000000000000000000000000000815260040161187e90612607565b60405180910390fd5b600460008373ffffffffffffffffffffffffffffffffffffffff1673ffffffffffffffffffffffffffffffffffffffff1681526020019081526020016000206040518060600160405290816000820160009054906101000a900460ff161515151581526020016000820160019054906101000a900460ff161515151581526020016001820154815250509050919050565b611920611e42565b73ffffffffffffffffffffffffffffffffffffffff1661193e61123a565b73ffffffffffffffffffffffffffffffffffffffff1614611994576040517f08c379a000000000000000000000000000000000000000000000000000000000815260040161198b9061259b565b60405180910390fd5b600260058111156119a8576119a7612252565b5b600260009054906101000a900460ff1660058111156119ca576119c9612252565b5b14611a0a576040517f08c379a0000000000000000000000000000000000000000000000000000000008152600401611a0190612cab565b60405180910390fd5b6003600260006101000a81548160ff02191690836005811115611a3057611a2f612252565b5b02179055507f0a97a4ee45751e2abf3e4fc8946939630b11b371ea8ae39ccdc3056e98f5cc3f60026003604051611a68929190612a8c565b60405180910390a1565b611a7a611e42565b73ffffffffffffffffffffffffffffffffffffffff16611a9861123a565b73ffffffffffffffffffffffffffffffffffffffff1614611aee576040517f08c379a0000000000000000000000000000000000000000000000000000000008152600401611ae59061259b565b60405180910390fd5b600073ffffffffffffffffffffffffffffffffffffffff168173ffffffffffffffffffffffffffffffffffffffff1603611b5d576040517f08c379a0000000000000000000000000000000000000000000000000000000008152600401611b5490612d3d565b60405180910390fd5b611b6681611e4a565b50565b611b71611e42565b73ffffffffffffffffffffffffffffffffffffffff16611b8f61123a565b73ffffffffffffffffffffffffffffffffffffffff1614611be5576040517f08c379a0000000000000000000000000000000000000000000000000000000008152600401611bdc9061259b565b60405180910390fd5b60006005811115611bf957611bf8612252565b5b600260009054906101000a900460ff166005811115611c1b57611c1a612252565b5b14611c5b576040517f08c379a0000000000000000000000000000000000000000000000000000000008152600401611c5290612dcf565b60405180910390fd5b60011515600460008373ffffffffffffffffffffffffffffffffffffffff1673ffffffffffffffffffffffffffffffffffffffff16815260200190815260200160002060000160009054906101000a900460ff16151503611cf1576040517f08c379a0000000000000000000000000000000000000000000000000000000008152600401611ce890612e3b565b60405180910390fd5b6001600460008373ffffffffffffffffffffffffffffffffffffffff1673ffffffffffffffffffffffffffffffffffffffff16815260200190815260200160002060000160006101000a81548160ff0219169083151502179055507fb6be2187d059cc2a55fe29e0e503b566e1e0f8c8780096e185429350acffd3dd81604051611d7b9190612237565b60405180910390a150565b60038181548110611d9657600080fd5b9060005260206000209060020201600091509050806000018054611db990612ae4565b80601f0160208091040260200160405190810160405280929190818152602001828054611de590612ae4565b8015611e325780601f10611e0757610100808354040283529160200191611e32565b820191906000526020600020905b815481529060010190602001808311611e1557829003601f168201915b5050505050908060010154905082565b600033905090565b60008060009054906101000a900473ffffffffffffffffffffffffffffffffffffffff169050816000806101000a81548173ffffffffffffffffffffffffffffffffffffffff021916908373ffffffffffffffffffffffffffffffffffffffff1602179055508173ffffffffffffffffffffffffffffffffffffffff168173ffffffffffffffffffffffffffffffffffffffff167f8be0079c531659141344cd1fd0a4f28419497f9722a3daafe3b4186f6b6457e060405160405180910390a35050565b604051806040016040528060608152602001600081525090565b828054611f3490612ae4565b90600052602060002090601f016020900481019282611f565760008555611f9d565b82601f10611f6f57805160ff1916838001178555611f9d565b82800160010185558215611f9d579182015b82811115611f9c578251825591602001919060010190611f81565b5b509050611faa9190611fd3565b5090565b6040518060600160405280600015158152602001600015158152602001600081525090565b5b80821115611fec576000816000905550600101611fd4565b5090565b6000604051905090565b600080fd5b600080fd5b6000819050919050565b61201781612004565b811461202257600080fd5b50565b6000813590506120348161200e565b92915050565b6000602082840312156120505761204f611ffa565b5b600061205e84828501612025565b91505092915050565b600080fd5b600080fd5b6000601f19601f8301169050919050565b7f4e487b7100000000000000000000000000000000000000000000000000000000600052604160045260246000fd5b6120ba82612071565b810181811067ffffffffffffffff821117156120d9576120d8612082565b5b80604052505050565b60006120ec611ff0565b90506120f882826120b1565b919050565b600067ffffffffffffffff82111561211857612117612082565b5b61212182612071565b9050602081019050919050565b82818337600083830152505050565b600061215061214b846120fd565b6120e2565b90508281526020810184848401111561216c5761216b61206c565b5b61217784828561212e565b509392505050565b600082601f83011261219457612193612067565b5b81356121a484826020860161213d565b91505092915050565b6000602082840312156121c3576121c2611ffa565b5b600082013567ffffffffffffffff8111156121e1576121e0611fff565b5b6121ed8482850161217f565b91505092915050565b600073ffffffffffffffffffffffffffffffffffffffff82169050919050565b6000612221826121f6565b9050919050565b61223181612216565b82525050565b600060208201905061224c6000830184612228565b92915050565b7f4e487b7100000000000000000000000000000000000000000000000000000000600052602160045260246000fd5b6006811061229257612291612252565b5b50565b60008190506122a382612281565b919050565b60006122b382612295565b9050919050565b6122c3816122a8565b82525050565b60006020820190506122de60008301846122ba565b92915050565b600081519050919050565b600082825260208201905092915050565b60005b8381101561231e578082015181840152602081019050612303565b8381111561232d576000848401525b50505050565b600061233e826122e4565b61234881856122ef565b9350612358818560208601612300565b61236181612071565b840191505092915050565b61237581612004565b82525050565b600060408301600083015184820360008601526123988282612333565b91505060208301516123ad602086018261236c565b508091505092915050565b600060208201905081810360008301526123d2818461237b565b905092915050565b6123e381612004565b82525050565b60006020820190506123fe60008301846123da565b92915050565b61240d81612216565b811461241857600080fd5b50565b60008135905061242a81612404565b92915050565b60006020828403121561244657612445611ffa565b5b60006124548482850161241b565b91505092915050565b60008115159050919050565b6124728161245d565b82525050565b60608201600082015161248e6000850182612469565b5060208201516124a16020850182612469565b5060408201516124b4604085018261236c565b50505050565b60006060820190506124cf6000830184612478565b92915050565b600082825260208201905092915050565b60006124f1826122e4565b6124fb81856124d5565b935061250b818560208601612300565b61251481612071565b840191505092915050565b6000604082019050818103600083015261253981856124e6565b905061254860208301846123da565b9392505050565b7f4f776e61626c653a2063616c6c6572206973206e6f7420746865206f776e6572600082015250565b60006125856020836124d5565b91506125908261254f565b602082019050919050565b600060208201905081810360008301526125b481612578565b9050919050565b7f596f75277265206e6f74206120766f7465720000000000000000000000000000600082015250565b60006125f16012836124d5565b91506125fc826125bb565b602082019050919050565b60006020820190508181036000830152612620816125e4565b9050919050565b7f566f74696e672073657373696f6e20686176656e74207374617274656420796560008201527f7400000000000000000000000000000000000000000000000000000000000000602082015250565b60006126836021836124d5565b915061268e82612627565b604082019050919050565b600060208201905081810360008301526126b281612676565b9050919050565b7f596f75206861766520616c726561647920766f74656400000000000000000000600082015250565b60006126ef6016836124d5565b91506126fa826126b9565b602082019050919050565b6000602082019050818103600083015261271e816126e2565b9050919050565b7f50726f706f73616c206e6f7420666f756e640000000000000000000000000000600082015250565b600061275b6012836124d5565b915061276682612725565b602082019050919050565b6000602082019050818103600083015261278a8161274e565b9050919050565b7f4e487b7100000000000000000000000000000000000000000000000000000000600052603260045260246000fd5b7f4e487b7100000000000000000000000000000000000000000000000000000000600052601160045260246000fd5b60006127fa82612004565b91507fffffffffffffffffffffffffffffffffffffffffffffffffffffffffffffffff820361282c5761282b6127c0565b5b600182019050919050565b600060408201905061284c6000830185612228565b61285960208301846123da565b9392505050565b7f50726f706f73616c7320617265206e6f7420616c6c6f77656420796574000000600082015250565b6000612896601d836124d5565b91506128a182612860565b602082019050919050565b600060208201905081810360008301526128c581612889565b9050919050565b50565b60006128dc6000836124d5565b91506128e7826128cc565b600082019050919050565b6000602082019050818103600083015261290b816128cf565b9050919050565b6000602082019050818103600083015261292c81846124e6565b905092915050565b7f566f7573206e6520706f7576657a20706173206e65207269656e2070726f706f60008201527f7365720000000000000000000000000000000000000000000000000000000000602082015250565b60006129906023836124d5565b915061299b82612934565b604082019050919050565b600060208201905081810360008301526129bf81612983565b9050919050565b60006129d182612004565b91506129dc83612004565b9250828210156129ef576129ee6127c0565b5b828203905092915050565b7f43757272656e7420737461747573206973206e6f7420766f74696e672073657360008201527f73696f6e20656e64656400000000000000000000000000000000000000000000602082015250565b6000612a56602a836124d5565b9150612a61826129fa565b604082019050919050565b60006020820190508181036000830152612a8581612a49565b9050919050565b6000604082019050612aa160008301856122ba565b612aae60208301846122ba565b9392505050565b7f4e487b7100000000000000000000000000000000000000000000000000000000600052602260045260246000fd5b60006002820490506001821680612afc57607f821691505b602082108103612b0f57612b0e612ab5565b5b50919050565b7f5265676973746572696e672070726f706f73616c732063616e7420626520737460008201527f6172746564206e6f770000000000000000000000000000000000000000000000602082015250565b6000612b716029836124d5565b9150612b7c82612b15565b604082019050919050565b60006020820190508181036000830152612ba081612b64565b9050919050565b7f5265676973746572696e672070726f706f73616c7320686176656e742073746160008201527f7274656420796574000000000000000000000000000000000000000000000000602082015250565b6000612c036028836124d5565b9150612c0e82612ba7565b604082019050919050565b60006020820190508181036000830152612c3281612bf6565b9050919050565b7f5265676973746572696e672070726f706f73616c73207068617365206973206e60008201527f6f742066696e6973686564000000000000000000000000000000000000000000602082015250565b6000612c95602b836124d5565b9150612ca082612c39565b604082019050919050565b60006020820190508181036000830152612cc481612c88565b9050919050565b7f4f776e61626c653a206e6577206f776e657220697320746865207a65726f206160008201527f6464726573730000000000000000000000000000000000000000000000000000602082015250565b6000612d276026836124d5565b9150612d3282612ccb565b604082019050919050565b60006020820190508181036000830152612d5681612d1a565b9050919050565b7f566f7465727320726567697374726174696f6e206973206e6f74206f70656e2060008201527f7965740000000000000000000000000000000000000000000000000000000000602082015250565b6000612db96023836124d5565b9150612dc482612d5d565b604082019050919050565b60006020820190508181036000830152612de881612dac565b9050919050565b7f416c726561647920726567697374657265640000000000000000000000000000600082015250565b6000612e256012836124d5565b9150612e3082612def565b602082019050919050565b60006020820190508181036000830152612e5481612e18565b905091905056fea26469706673582212207e27bce116ead3400ad1b9d46c497169480049dc608126612294857d26573aa164736f6c634300080d0033",
  "immutableReferences": {},
  "source": "// SPDX-License-Identifier: MIT\n\npragma solidity 0.8.13;\nimport \"@openzeppelin/contracts/access/Ownable.sol\";\n\ncontract Voting is Ownable {\n    uint256 public winningProposalID;\n\n    WorkflowStatus public workflowStatus;\n    Proposal[] public proposalsArray;\n    mapping(address => Voter) private voters;\n\n    struct Voter {\n        bool isRegistered;\n        bool hasVoted;\n        uint256 votedProposalId;\n    }\n\n    struct Proposal {\n        string description;\n        uint256 voteCount;\n    }\n\n    enum WorkflowStatus {\n        RegisteringVoters,\n        ProposalsRegistrationStarted,\n        ProposalsRegistrationEnded,\n        VotingSessionStarted,\n        VotingSessionEnded,\n        VotesTallied\n    }\n\n    event VoterRegistered(address voterAddress);\n    event WorkflowStatusChange(\n        WorkflowStatus previousStatus,\n        WorkflowStatus newStatus\n    );\n    event ProposalRegistered(uint256 proposalId);\n    event Voted(address voter, uint256 proposalId);\n\n    modifier onlyVoters() {\n        require(voters[msg.sender].isRegistered, \"You're not a voter\");\n        _;\n    }\n\n    // ::::::::::::: GETTERS ::::::::::::: //\n\n    function getVoter(address _addr) external view onlyVoters returns (Voter memory){\n        return voters[_addr];\n    }\n\n    function getOneProposal(uint256 _id) external view onlyVoters returns (Proposal memory){\n        return proposalsArray[_id];\n    }\n\n    // ::::::::::::: REGISTRATION ::::::::::::: //\n\n    function addVoter(address _addr) public onlyOwner {\n        require(workflowStatus == WorkflowStatus.RegisteringVoters,\n\t\t\"Voters registration is not open yet\");\n        require(voters[_addr].isRegistered != true, \"Already registered\");\n\n        voters[_addr].isRegistered = true;\n        emit VoterRegistered(_addr);\n    }\n\n    // ::::::::::::: PROPOSAL ::::::::::::: //\n\n    function addProposal(string memory _desc) external onlyVoters {\n        require( workflowStatus == WorkflowStatus.ProposalsRegistrationStarted,\n            \"Proposals are not allowed yet\"\n        );\n        require(\n            keccak256(abi.encode(_desc)) != keccak256(abi.encode(\"\")),\n            \"Vous ne pouvez pas ne rien proposer\"\n        );\n\n        Proposal memory proposal;\n        proposal.description = _desc;\n        proposalsArray.push(proposal);\n        emit ProposalRegistered(proposalsArray.length - 1);\n    }\n\n    // ::::::::::::: VOTE ::::::::::::: //\n\n    function setVote(uint256 _id) external onlyVoters {\n        require(\n            workflowStatus == WorkflowStatus.VotingSessionStarted,\n            \"Voting session havent started yet\"\n        );\n        require(voters[msg.sender].hasVoted != true, \"You have already voted\");\n        require(_id < proposalsArray.length, \"Proposal not found\"); // pas oblig, et pas besoin du >0 car uint\n\n        voters[msg.sender].votedProposalId = _id;\n        voters[msg.sender].hasVoted = true;\n        proposalsArray[_id].voteCount++;\n\n        emit Voted(msg.sender, _id);\n    }\n\n    // ::::::::::::: STATE ::::::::::::: //\n\n    function startProposalsRegistering() external onlyOwner {\n        require(\n            workflowStatus == WorkflowStatus.RegisteringVoters,\n            \"Registering proposals cant be started now\"\n        );\n        workflowStatus = WorkflowStatus.ProposalsRegistrationStarted;\n        emit WorkflowStatusChange(\n            WorkflowStatus.RegisteringVoters,\n            WorkflowStatus.ProposalsRegistrationStarted\n        );\n    }\n\n    function endProposalsRegistering() external onlyOwner {\n        require(\n            workflowStatus == WorkflowStatus.ProposalsRegistrationStarted,\n            \"Registering proposals havent started yet\"\n        );\n        workflowStatus = WorkflowStatus.ProposalsRegistrationEnded;\n        emit WorkflowStatusChange(\n            WorkflowStatus.ProposalsRegistrationStarted,\n            WorkflowStatus.ProposalsRegistrationEnded\n        );\n    }\n\n    function startVotingSession() external onlyOwner {\n        require(\n            workflowStatus == WorkflowStatus.ProposalsRegistrationEnded,\n            \"Registering proposals phase is not finished\"\n        );\n        workflowStatus = WorkflowStatus.VotingSessionStarted;\n        emit WorkflowStatusChange(\n            WorkflowStatus.ProposalsRegistrationEnded,\n            WorkflowStatus.VotingSessionStarted\n        );\n    }\n\n    function endVotingSession() external onlyOwner {\n        require(\n            workflowStatus == WorkflowStatus.VotingSessionStarted,\n            \"Voting session havent started yet\"\n        );\n        workflowStatus = WorkflowStatus.VotingSessionEnded;\n        emit WorkflowStatusChange(\n            WorkflowStatus.VotingSessionStarted,\n            WorkflowStatus.VotingSessionEnded\n        );\n    }\n\n    function tallyVotes() external onlyOwner {\n    \trequire(workflowStatus == WorkflowStatus.VotingSessionEnded, \"Current status is not voting session ended\");\n    \tuint _winningProposalId;\n    \tfor (uint256 p = 0; p < proposalsArray.length; p++) {\n        \tif (proposalsArray[p].voteCount > proposalsArray[_winningProposalId].voteCount) {\n               _winningProposalId = p;\n        \t}\n    \t}\n       winningProposalID = _winningProposalId;\n       \n       workflowStatus = WorkflowStatus.VotesTallied;\n       emit WorkflowStatusChange(WorkflowStatus.VotingSessionEnded, WorkflowStatus.VotesTallied);\n    }\n\n    function resetWorklow() external onlyOwner {\n        workflowStatus = WorkflowStatus.RegisteringVoters;\n    }\n\n\n    constructor() {\n        voters[address(0xBF2C49df4a77f583C06A190ff71dD153FD84000a)].isRegistered = true;\n        voters[address(0x92218796747cb1B8490ef3275d81F028291F3E7C)].isRegistered = true;\n        voters[address(0x709c337524C506cf9584029e54c151Efd6D2D436)].isRegistered = true;\n        voters[address(0x81FF5c6A3eE359ecBc7747740A4d16442180f836)].isRegistered = true;\n           \n        proposalsArray.push(Proposal(\"Proposal 0\", 0));\n        proposalsArray.push(Proposal(\"Proposal 1\", 0));\n        proposalsArray.push(Proposal(\"Proposal 2\", 0));\n        proposalsArray.push(Proposal(\"Proposal 3\", 0));\n        proposalsArray.push(Proposal(\"Proposal 4\", 0));\n        proposalsArray.push(Proposal(\"Proposal 5\", 0));\n        proposalsArray.push(Proposal(\"Proposal 6\", 0));\n        proposalsArray.push(Proposal(\"Proposal 7\", 0));\n    }\n\n\n    function resetFlow() external onlyOwner {\n        voters[0xBF2C49df4a77f583C06A190ff71dD153FD84000a].isRegistered = true;\n        voters[0x92218796747cb1B8490ef3275d81F028291F3E7C].isRegistered = true;\n        voters[0x709c337524C506cf9584029e54c151Efd6D2D436].isRegistered = true;\n        voters[0x81FF5c6A3eE359ecBc7747740A4d16442180f836].isRegistered = true;\n\n        proposalsArray[0] = Proposal(\"Proposal 0\", 0);\n        proposalsArray[1] = Proposal(\"Proposal 1\", 0);\n        proposalsArray[2] = Proposal(\"Proposal 2\", 0);\n        proposalsArray[3] = Proposal(\"Proposal 3\", 0);\n        proposalsArray[4] = Proposal(\"Proposal 4\", 0);\n        proposalsArray[5] = Proposal(\"Proposal 5\", 0);\n        proposalsArray[6] = Proposal(\"Proposal 6\", 0);\n        proposalsArray[7] = Proposal(\"Proposal 7\", 0);\n\n        workflowStatus = WorkflowStatus.RegisteringVoters;\n    }\n}",
  "sourcePath": "/Users/tonted/alyra/alyra_project3/contracts/1_voting.sol",
  "compiler": {
    "name": "solc",
    "version": "0.8.13+commit.abaa5c0e.Emscripten.clang"
  },
  "schemaVersion": "3.4.6",
  "updatedAt": "2022-04-23T12:52:06.258Z",
  "networkType": "ethereum",
  "devdoc": {
    "kind": "dev",
    "methods": {
      "owner()": {
        "details": "Returns the address of the current owner."
      },
      "renounceOwnership()": {
        "details": "Leaves the contract without owner. It will not be possible to call `onlyOwner` functions anymore. Can only be called by the current owner. NOTE: Renouncing ownership will leave the contract without an owner, thereby removing any functionality that is only available to the owner."
      },
      "transferOwnership(address)": {
        "details": "Transfers ownership of the contract to a new account (`newOwner`). Can only be called by the current owner."
      }
    },
    "version": 1
  },
  "userdoc": {
    "kind": "user",
    "methods": {},
    "version": 1
  }
}